:10000000B2C0C1C0C0C0BFC0BEC0BDC0BDC0BBC00B
:10001000BAC0B9C0B8C0B7C0B6C0B5C0B4C0B3C02C
:10002000B2C0B1C0B0C0000000000A000F00140050
:1000300018001D00220027002C00310035003A0076
:100040003F00440048004D00520056005B005F0036
:10005000640068006D00710075007A007E00820007
:1000600086008A008E00920096009A009E00A200F0
:10007000A500A900AD00B000B300B700BA00BD00F4
:10008000C000C400C700C900CC00CF00D200D4001B
:10009000D700D900DC00DE00E000E200E400E6006A
:1000A000E800EA00EB00ED00EE00F000F100F200E5
:1000B000F300F400F500F600F700F700F800F80090
:1000C000F900F900F900F900F900F900F900F80069
:1000D000F800F700F700F600F500F400F300F20076
:1000E000F100F000EE00ED00EB00EA00E800E600B1
:1000F000E400E200E000DE00DC00D900D700D4001C
:10010000D200CF00CC00C900C700C400C000BD00B1
:10011000BA00B700B300B000AD00A900A500A2006E
:100120009E009A00960092008E008A00860082004F
:100130007E007A00750071006D00680064005F0049
:100140005B00560052004D00480044003F003A005A
:10015000350031002C00270022001D00180014007B
:100160000F000000000011241FBECFE5D4E0DEBF69
:10017000CDBF20E0A0E6B0E001C01D92A436B207DA
:10018000E1F783D08CC03CCF1F920F920FB60F9235
:1001900011248F939F93EF93FF93809163008823A3
:1001A00019F0813099F023C0E0916000F091610076
:1001B000EE0FFF1FEA5DFF4FE491F0E0FBBDEABDEB
:1001C00019BC18BCC09880E285BB11C0E0916000EA
:1001D000F0916100EE0FFF1FEA5DFF4FE491F0E048
:1001E000F9BDE8BD1BBC1ABC81E088BBAD9880910D
:1001F0006000909161000196803A910528F49093F7
:1002000061008093600019C010926100109260003C
:100210009091630081E098279093630097B38927BA
:1002200087BB94B380E2892784BB97B382E0892798
:1002300087BB97B384E0892787BBFF91EF919F919C
:100240008F910F900FBE0F901F9018958EB5816003
:100250008EBD8FB582608FBD8EB580618EBD8EB52F
:1002600088608EBD89EF90E097BD86BD8FB58068B0
:100270008FBD8FB580628FBD1BBC1ABC19BC18BC6A
:10028000789489B7806189BF0895B99AA59ADEDF0D
:10029000109263001092610010926000FFCFF894FA
:0202A000FFCF8E
:00000001FF
